:100000000C9434000C9451000C9451000C94510049
:100010000C9451000C9451000C9451000C9451001C
:100020000C9451000C9451000C9451000C9451000C
:100030000C9451000C9451000C9451000C945100FC
:100040000C946E000C9451000C9451000C945100CF
:100050000C9451000C9451000C9451000C945100DC
:100060000C9451000C94510011241FBECFEFD8E026
:10007000DEBFCDBF11E0A0E0B1E0E6EDF2E002C0EE
:1000800005900D92A030B107D9F711E0A0E0B1E0E2
:1000900001C01D92A930B107E1F70E9459010C94EB
:1000A00069010C940000299A219A08951F9312E087
:1000B00013B964E670E080E090E00E94F10013B9AB
:1000C00064E670E080E090E00E94F10064EF71E08F
:1000D00080E090E00E94F1001F9108951F920F921E
:1000E0000FB60F9211242F933F938F939F93AF934B
:1000F000BF938091040190910501A0910601B091F8
:100100000701309108010196A11DB11D232F2D5F1C
:100110002D3720F02D570196A11DB11D2093080108
:100120008093040190930501A0930601B093070109
:100130008091000190910101A0910201B091030111
:100140000196A11DB11D8093000190930101A09320
:100150000201B0930301BF91AF919F918F913F91A5
:100160002F910F900FBE0F901F901895789484B523
:10017000826084BD84B5816084BD85B5826085BDA3
:1001800085B5816085BDEEE6F0E080818160808389
:10019000E1E8F0E01082808182608083808181606C
:1001A0008083E0E8F0E0808181608083E1EBF0E033
:1001B000808184608083E0EBF0E0808181608083D7
:1001C000EAE7F0E0808184608083808182608083C0
:1001D0008081816080838081806880831092C100EB
:1001E0000895EF92FF920F931F93CF93DF937B01BC
:1001F0008C013FB7F8948091000190910101A0918A
:100200000201B091030126B5A89B05C02F3F19F04C
:100210000196A11DB11D3FBFBA2FA92F982F882786
:10022000820F911DA11DB11D52E0880F991FAA1FB9
:10023000BB1F5A95D1F7EC0130C00E9468013FB74F
:10024000F8948091000190910101A0910201B09178
:10025000030126B5A89B05C02F3F19F00196A11DEB
:10026000B11D3FBFBA2FA92F982F8827820F911D4C
:10027000A11DB11D32E0880F991FAA1FBB1F3A951F
:10028000D1F78C1B9D0B885E9340B8F20894E1086F
:10029000F10801091109C851DC4FE114F10401050D
:1002A000110559F6DF91CF911F910F91FF90EF90BB
:1002B0000895CF93DF930E94B6000E945300C0E0E0
:1002C000D0E00E9456002097E1F30E940000F9CF91
:0602D0000895F894FFCF31
:00000001FF
